:020000040800F2
:1000000068050020010100083F170008CD15000811
:100010003D170008E3040008C119000800000000B3
:10002000000000000000000000000000431700086E
:10003000E50400080000000041170008451700080B
:100040001B0100081B0100081B0100081B01000820
:100050001B0100081B0100081B0100081B01000810
:100060001B0100081B0100081B0100081B01000800
:100070001B0100081B0100081B0100081B010008F0
:100080001B0100081B0100081B0100081B010008E0
:100090001B0100081B0100081B0100081B010008D0
:1000A0001B0100081B0100081B0100081B010008C0
:1000B0001B0100081B0100081B0100081B010008B0
:1000C0001B0100081B0100081B0100081B010008A0
:1000D0001B01000889190008B51900081B01000858
:1000E0001B0100081B0100081B010008DFF80CD0F1
:1000F00000F0AEF90048004719210008680500200B
:100100000648804706480047FEE7FEE7FEE7FEE7B1
:10011000FEE7FEE7FEE7FEE7FEE7FEE7B1170008B1
:10012000ED000008202A04DB203A21FA02F0002129
:10013000704721FA02F3D040C2F1200291400843F7
:1001400019467047D2B201E000F8012B491EFBD2DC
:1001500070470022F6E710B513460A4604461946D2
:10016000FFF7F0FF204610BD30B505462A460B4686
:1001700012F8010B13F8014B08B1A042F8D01CB1E2
:10018000002802D06D1CF1E7284630BD30B504468A
:100190000020034600E05B1C934203D2E05CCD5C90
:1001A000401BF8D030BD2DE9F04D81EA030404F086
:1001B000004B21F0004514464FF0000A23F00041A7
:1001C00050EA050220D054EA01021DD0C5F30A57B7
:1001D0000246C5F31303C1F31300C1F30A5640F4FA
:1001E000801543F48013A7EB0608101BD64608F2CF
:1001F000FD3873EB050002D308F1010801E0921805
:100200005B41B8F1000F03DA00200146BDE8F08D34
:1002100000204FF48011064684460EE0171B73EB56
:10022000050705D3121B63EB050306434CEA010CDB
:1002300049084FEA300092185B4150EA0107EDD1BE
:1002400052EA030012D082EA040083EA050108435F
:1002500005D0101BAB4106D20122002306E000228C
:100260004FF0004302E06FF0010253101AEB06005A
:100270004CEB085110EB0A0041EB0B01BDE8F04DCF
:1002800000F088B8C10F80EAE0700844CA079623DE
:10029000002100F051B870B5C1F30A5201F00045D9
:1002A0000024C1F3130140F2FF3341F480119A425C
:1002B00001DA002070BD40F233439A42A2F2334289
:1002C00003DC5242FFF72EFF00E090402C43F1D0B8
:1002D000404270BD00F0004230F000400AD0C10D35
:1002E00001F56071C0F3160042EA0151C2084007EF
:1002F0001143704700200146704730B50B46014658
:1003000000202022012409E021FA02F59D4205D3B4
:1003100003FA02F5491B04FA02F52844151EA2F15E
:100320000102F1DC30BD0029A8BF7047401C490024
:1003300008BF20F00100704710B4B0FA80FC00FA4A
:100340000CF050EA010404BF10BC704749B1CCF175
:10035000200421FA04F411FA0CF118BF0121214301
:100360000843A3EB0C01CB1D4FEA00614FEA1020BC
:1003700042BF002010BC704700EBC350104400295E
:10038000A4BF10BC7047401C490008BF20F001000A
:1003900010BC704710B5141E73F1000408DA401C3D
:1003A00041F1000192185B411A4301D120F0010094
:1003B00010BD2DE9F04D92469B4611B1B1FA81F284
:1003C00002E0B0FA80F22032904600F053F8044682
:1003D0000F4640EA0A0041EA0B0153465A460843D9
:1003E00013D0114653EA010019D0C8F1400250461B
:1003F000FFF798FE05460E4650465946424600F025
:1004000039F8084305D0012004E020463946BDE80C
:10041000F08D0020054346EAE0762C4337430A98E6
:100420006305E40AA0EB08000022FD0A44EA4754F1
:100430000A3002D500200146E9E70105101969419B
:10044000DDE9084500196941BDE8F04DA2E700006B
:10045000064C074D06E0E06840F0010394E8070011
:1004600098471034AC42F6D3FFF744FE80270008CB
:10047000A0270008202A04DB203A00FA02F100201D
:1004800070479140C2F1200320FA03F319439040D2
:100490007047000070B5044600688168C943C90709
:1004A0001CD1816821F00101816000F0DBFA054672
:1004B0000FE000BF00F0D6FA401B022809D9A06A5D
:1004C00040F01000A062E06A40F00100E06201200C
:1004D00070BD20688068C043C007EBD0002070BDAD
:1004E0007047FEE7704772B6FEE7000010B501F0F6
:1004F00019F80149486010BD3400002010B501F022
:1005000011F8094C2060616888420BDD401AFFF742
:10051000B9FEFFF7DFFE0022044BFFF744FEFFF7B2
:10052000BAFEA06010BD00003400002000A05A40B8
:10053000F8B50024009490F824202546012A12D012
:10054000012280F824204A681F23072A0DD206685A
:10055000776B521E02EB820293409F430B689340DD
:100560001F43776319E00220F8BD06680D2A0AD2FE
:10057000376BD21F02EB820293409F430B6893407C
:100580001F43376309E0F76A0D3A02EB820293409A
:100590009F430B6893401F43F7620A68072306686E
:1005A0000A2A0AD3F7680A3A02EB420293409F43B1
:1005B0008B6893401F43F76008E0376902EB420203
:1005C00093409F438B6893401F4337610A68102A0A
:1005D00001D0112A20D1124B02689A4217D1936898
:1005E0001B0219D4936843F400039360096810292F
:1005F00012D10C490C4A0968B1FBF2F101EB8101FF
:10060000490000E0491E00910029FBD104E0816A05
:1006100041F020018162012480F824502046F8BD79
:10062000002401401000002040420F002DE9F0415D
:100630004FF0000704003D467ED0A06A002628B98E
:10064000E66284F82460204600F07EF82046FFF73A
:1006500021FFA16AC90600D420B1A06A40F01000B1
:10066000A06269E0A16A21F4885141F00201A1620F
:100670006268E169237B0A4347EA43010A43A168B0
:100680004FF48077B94209D0012907D05FF000010B
:1006900094F814C0BCF1010F02D00AE03946F7E724
:1006A000F3B1A36A43F02003A362E36A43F00103BA
:1006B000E3622368D3F804C02CF4694C4CEA010CC3
:1006C000C3F804C021688B68DFF870C003EA0C032C
:1006D00013438B60A168B9420BD0012909D00CE00B
:1006E000DFF85CC0A3690CEB43330B4343F40061B8
:1006F000DFE7218A0D05A5F580152168CB6A23F473
:1007000070032B43CB62216889680E4B19409142DC
:1007100008D1E662A16A21F0020141F00101A16263
:10072000BDE8F081A06A20F0020040F01000A06255
:10073000E06A40F00100E0620120F1E7FDF7E1FF2F
:1007400000E0FFFFFE0E1FFF00B585B00021009105
:1007500001910291039100680E49884218D10E4818
:10076000816941F400718161816901F40071049132
:10077000816941F0040181618069694600F00400EB
:1007800004900120009003200190044800F068F8D4
:1007900005B000BD002401400010024000080140E7
:1007A00010B590F821100024022903D004218163A0
:1007B00001243DE001680A6822F00E020A60016827
:1007C0000A6822F001020A601A4A0168914201D1C6
:1007D000012121E0174A1432914201D110211BE07E
:1007E000144A2832914201D1891515E0114A3C3250
:1007F000914201D189140FE00E4A5032914202D148
:100800004FF4803108E00B4A6432914202D14FF438
:10081000801101E04FF08071064A083A51600121D1
:1008200080F82110002180F82010416B01B1884729
:10083000204610BD0800024070B5044600F012F9D1
:100840000546601C02D004480078044400F00AF910
:10085000401BA042FAD370BD0400002000F0A0B9F4
:100860002DE9F84FDFF8B891002409F1040A0AF1E4
:10087000040B23460F270BF1040EC9E00125A54008
:100880002A40AA427DD1674ED1F804C0ACEB0608DD
:10089000B44532D014DCBCF1030F3AD009DCBCF112
:1008A000000F2AD0BCF1010F1CD0BCF1020F31D1D6
:1008B0001DE0BCF1110F17D0BCF1120F2AD119E0C5
:1008C000B8F5881F19D006DCB8F5803F15D0B8F50B
:1008D000801F1FD111E0B8F5001F0ED0B8F5041F1E
:1008E00018D10AE0CB6815E0CB681B1D12E0CB687D
:1008F00008330FE0CB680C330CE08B682BB1012B75
:100900004FF0080303D0456104E0042302E00561D1
:1009100000E00023FF2A01D8064601E000F10406AA
:100920004FEA840501D9A5F12005D6F8008007FA21
:1009300005FC28EA0C0803FA05F548EA0508C6F89C
:1009400000804D68ED0062D5374DAE6946F0010676
:10095000AE61AD6924F0030605F001050095334D45
:1009600006EB050CDCF80850A607360F07FA06F868
:1009700025EA0805DFF8B880404503D14FF00008AC
:1009800017E044E0DFF8AC80404502D14FF00108A9
:100990000FE0DFF8A480404502D14FF0020808E0E4
:1009A000DFF89880404502D14FF0030801E04FF096
:1009B000040808FA06F848EA0508CCF808804D68EB
:1009C000D9F80060ED034D4601D5164300E096438B
:1009D0002E604D68DAF80060AD03554601D5164328
:1009E00000E096432E604D68DBF80060ED025D4646
:1009F00001D5164300E096432E604D68DEF8006096
:100A0000AD02754601D5164300E096432E60641C86
:100A10000D682A46E5407FF431AFBDE8F88F00004D
:100A200000040140000011100010024000000140CD
:100A300000080140000C014000100140001401407A
:100A40008068084000D001207047C26821EA020394
:100A50000A4043EA0241016170470AB101617047EF
:100A60000904FBE70148806870470000040000208B
:100A700002488168027811448160704704000020B8
:100A8000074810B5016841F010010160032000F033
:100A900075F8002000F006F800F024F8002010BDE2
:100AA0000020024070B50D4D04464FF47A7128784D
:100AB000B1FBF0F00A490968B1FBF0F000F074FBFB
:100AC00048B9102C07D200222146501E00F036F8FB
:100AD00000206C6070BD012070BD0000040000208B
:100AE000100000200C4808B5816941F001018161C6
:100AF000816901F001010091C16941F08051C1613A
:100B0000C06900F0805000900448416821F0E06125
:100B100041F00071416008BD00100240000001403A
:100B2000002809DB00F01F020121914040098000EC
:100B300000F1E020C0F8001170470000F0B40E4B47
:100B40001B680C46C3F30223C3F10705042D00D92B
:100B50000425191D072901D2002300E0DB1E012610
:100B600006FA05F1491E214099409E40761E164026
:100B70003143F0BC00F04ABF0CED00E0064900F044
:100B8000070208684FF6FF03184040EA0220034AB4
:100B900010430860704700000CED00E00000FA050B
:100BA000BFF34F8F05480168054A01F4E061114326
:100BB0000160BFF34F8F00BFFDE700000CED00E0C8
:100BC0000400FA052DE9F84305460078354CC007C6
:100BD00054D0E0690026C00008D4E06940F080509D
:100BE000E061E069012600F0805000902E48016825
:100BF000C90512D40168804641F480710160FFF795
:100C000031FF074605E000BFFFF72CFFC01B64283B
:100C100023D8D8F80000C005F6D5206A10F440703B
:100C200021D0A98801F4407181421CD0206A1F495B
:100C3000012220F440700A6000220A602062C0078E
:100C400011D0FFF70FFF074641F2883808E000BFD8
:100C5000FFF708FFC11B414502D90320BDE8F88317
:100C6000206A8007F4D5206A696820F44070084340
:100C700020621EB1E06920F08050E0612878800792
:100C800005D56068A96820F4404008436060287872
:100C9000C00605D56068E96820F4800008436060FC
:100CA0000020DBE700100240007000404004424298
:100CB0002DE9F0470F46050061D0434E306800F043
:100CC0000700B84209D2306820F00700384330608E
:100CD000306800F00700B84251D128683B4C8107CA
:100CE00012D5400703D5606840F4E0606060287862
:100CF000000703D5606840F4605060606068A968D0
:100D000020F0F000084360602878C00728D06868A9
:100D1000012810D02168022810D0890700292EDA76
:100D2000616821F0030101436160FFF79BFE80468B
:100D300041F288390DE021688903EFE78901EDE789
:100D4000FFF790FEA0EB0801494502D90320BDE85A
:100D5000F0876068696800F00C00B0EB810FEFD19C
:100D6000306800F00700B8420BD9306820F0070067
:100D700038433060306800F00700B84201D00120ED
:100D8000E5E72878400705D56068E96820F4E06069
:100D9000084360602878000706D56068296920F458
:100DA000605040EAC100606000F038F86168084AAD
:100DB000C1F30311515CC840064908600648006849
:100DC000FFF770FE0020C2E7002002400010024042
:100DD0004C270008100000200800002004480549A6
:100DE00000684968044AC1F30221515CC840704759
:100DF00010000020001002405C270008044805494C
:100E000000684968044AC1F3C221515CC840704778
:100E100010000020001002405C27000812A185B0DD
:100E20000FC98DE80F0014A0144A0068049051689F
:100E3000134801F00C03042B10D0082B0ED1C1F382
:100E40008343C9031DF803000AD5516804AAC1F3FE
:100E50004041515C0A4A5043B0FBF1F005B0704785
:100E600008494843FAE70000020304050607080999
:100E70000A0B0C0D0E0F10100102000000100240B2
:100E800000127A0000093D002DE9F84F040070D0EF
:100E90002078C04DC00749D06868C0F381000128A0
:100EA00007D06868C0F38100022809D16868C003D0
:100EB00006D52868800339D560680028E7D035E07A
:100EC0006068B0F5803F0BD010B1B0F5A02F11D005
:100ED000286820F480302860286820F4802002E010
:100EE000286840F480302860606890B1FFF7BAFD50
:100EF00006460AE0286840F480202860F0E700BF3A
:100F0000FFF7B0FD801B642873D828688003F7D5ED
:100F10000CE0FFF7A7FD064605E000BFFFF7A2FDC6
:100F2000801B6428F0D828688003F7D420789A4E74
:100F300080074FF001094FF0000839D5686810F0BC
:100F40000C0F07D06868C0F38100022809D16868D7
:100F5000C00306D42868800714D52069012808D169
:100F600010E02069B0B1C6F80090FFF77BFD07469E
:100F700005E00AE1FFF776FDC01B0228C4D8286807
:100F80008007F7D52868616920F0F80040EAC100C1
:100F900028600DE0C6F80080FFF764FD074604E016
:100FA000FFF760FDC01B022823D828688007F7D40C
:100FB000207800072CD57948A169D9B1C0F80090F4
:100FC000FFF750FD074604E0FFF74CFDC01B022869
:100FD0000FD8686A8007F7D571484FF4FA51006856
:100FE000B0FBF1F0009000BF0098411E0091FAD2D2
:100FF0000EE080E0C0F80080FFF734FD074604E013
:10100000FFF730FDC01B022875D8686A8007F7D447
:101010002078400760D5E8690027C00008D4E86957
:1010200040F08050E861E869012700F080500090AE
:101030005C480168C90513D40168834641F4807196
:101040000160FFF70FFD824606E000BFFFF70AFDD3
:10105000A0EB0A0064284ED8DBF80000C005F5D5E7
:10106000E06801280AD008B1052813D0286A20F0CA
:1010700001002862286A20F0040002E0286A40F09B
:1010800001002862E06841F2883B98B1FFF7EAFC72
:1010900082460BE0286A40F004002862EEE700BFB9
:1010A000FFF7E0FCA0EB0A0159455AD8286A8007EF
:1010B000F6D50CE0FFF7D6FC824605E0FFF7D2FC40
:1010C000A0EB0A0159454CD8286A8007F6D41FB115
:1010D000E86920F08050E861E06988B36968C1F38D
:1010E0008101022944D00228C6F8608004D0FFF7AD
:1010F000B9FC044638E034E0FFF7B4FC074604E0EE
:10110000FFF7B0FCC01B02282BD828688001F7D459
:10111000206AB0F5803F05D16868A16820F40030EE
:1011200008436860D4E908010843696821F4741130
:1011300008436860C6F86090FFF794FC044606E038
:1011400025E000BFFFF78EFC001B022809D82868A5
:101150008001F7D51BE000BFFFF784FC001B0228CD
:1011600002D90320BDE8F88F28688001F4D40EE08E
:101170000128F7D06868226A00F48031914204D1D6
:10118000616A00F47010884201D00120EAE7002073
:10119000E8E70000001002400000424280044242A2
:1011A000100000200070004010B5401EB0F1807F9C
:1011B00001D3012010BD4FF0E02460610F216017C2
:1011C00000F024FC0020A06107202061002010BD59
:1011D0007047000070B5026804461068D168536912
:1011E00010F00F0F52D003F0010501F490762E435A
:1011F0005FD0C20705D0CA0503D5E26B42F00102F9
:10120000E263420705D5DA0703D0E26B42F002023F
:10121000E263820705D5DA0703D0E26B42F00402ED
:10122000E263020707D501F020022A4303D0E26BF4
:1012300042F00802E263E26B002A33D0800604D554
:10124000880602D5204600F0CAFA20684069E16BA2
:10125000C0F38010090700D428B3204600F0B1FA8B
:101260002068416949061AD5416921F04001416170
:10127000606BA0B12D494163606BFFF791FA0028C4
:1012800010D0606B416BBDE870400847830610D5F5
:101290008B060ED52046BDE8704000F0A0BA20466F
:1012A000FFF796FF70BD2046FFF792FF0020E06336
:1012B00070BD03062BD50B0629D594F839002128DB
:1012C000F6D1A068B0F5805F01D12069B0B1206A85
:1012D000411C2162216800784860E08C401E0004B7
:1012E000000CE084E4D12068C16821F08001C16075
:1012F0002068C16841F04001C16070BD206A00886B
:10130000C0F308005060206A801C2062E5E74006B8
:10131000F3D54806F1D5D168204621F04001D160CF
:10132000202184F8391000F0FCF870BDB3170008D4
:1013300070B5040004D094F83900002510B106E01F
:10134000012070BD84F83850204600F023F8242096
:1013500084F839002068C16821F40051C16020463A
:1013600000F084FA2068016921F49041016120684D
:10137000416921F02A0141612068C16841F40051AE
:10138000C160E563202084F8390084F83A00002029
:1013900070BD000070B586B00024009401940294E2
:1013A00003942E4E03682E49022003222D4DB34292
:1013B00026D18B6943F480438B618B6903F48043AE
:1013C00004938B6943F004038B618969039201F0F4
:1013D000040104910102CDE9001069462846FFF797
:1013E0003FFA2815CDE90004694628460294FFF724
:1013F00037FA002201212520FFF7A0FB252028E055
:10140000194EB34227D1CB6943F40033CB61CB698A
:1014100003F4003304938B6943F004038B618969FF
:10142000039201F0040104910421CDE90010694602
:101430002846FFF715FA0820CDE90004694628463A
:101440000294FFF70DFA002201212620FFF776FB18
:101450002620FFF765FB06B070BD00000038014094
:1014600000100240000801400044004070470000A6
:101470002DE9F843044690F839001F4616460D46FC
:1014800020284CD1C5B1BEB194F83800012846D00F
:10149000012084F838004FF00008C4F83C80212077
:1014A00084F83900FFF7DEFAA6848146E684A06856
:1014B000B0F5805F03D004E00120BDE8F883206927
:1014C00028B12E465FF0000584F838800EE0002633
:1014D000FAE78021204600F025FAA0B9AEB116F84F
:1014E000010B21684860E08C401EE084E08C4B4694
:1014F0004FF0000200970028EBD14FF0400120464A
:1015000000F010FA30B10320D7E735F8020BC0F332
:101510000800E6E7202084F839000020CDE702200B
:10152000CBE770472DE9F0470122274C960331465F
:101530002046FFF792FA0120FFF77EF94FF40048AA
:10154000002241462046FFF788FA00252746344608
:1015500031463846FFF774FA0028F8D1A1463C46D8
:1015600000264746012239462046FFF776FA6D00ED
:101570000120FFF761F9002239462046FFF76DFA96
:10158000012208212046FFF768FA49462046FFF766
:1015900057FA00B16D1C0120FFF74EF9761CF6B228
:1015A000182EDFD3012239462046FFF756FA85F47C
:1015B00000050120FFF740F9002239462046FFF7D9
:1015C0004CFA2846BDE8F087000C0140FEE7000019
:1015D00010B5074C00224FF480412046FFF73DFA3A
:1015E0002046BDE8104000224FF40041FFF735BA15
:1015F000000C01403EB50024104800940194029470
:101600000D498460016004730475012505614FF480
:1016100060214460C161FFF709F808B1FEF763FF7C
:10162000CDE90045694605480294FEF781FF002890
:1016300001D0FEF758FF3EBD0024014044000020C9
:101640002DE9F04385B000241D48009401940294D4
:101650000394816941F004018161816901F0040111
:101660000491816941F0080181618069DFF854804B
:1016700000F0080041F60215049000222946404679
:10168000FFF7EBF9DFF840904CF2380700223946BB
:101690004846FFF7E2F90095022601250396CDE9B9
:1016A000015469464046FFF7DBF800970396CDE901
:1016B000015469464846FFF7D3F805B0BDE8F0830A
:1016C0000010024000080140000C01400C4810B519
:1016D0000A4901604FF416514160002181600C22DB
:1016E000C160C0E904128161C161FFF721FE0028D9
:1016F00003D0BDE81040FEF7F6BE10BD0038014033
:10170000740000200C4810B50A4901604FF4E13123
:101710004160002181600C22C160C0E90412816136
:10172000C161FFF705FE002803D0BDE81040FEF7B9
:10173000DABE10BD00440040B4000020FEE7FEE722
:1017400070477047FFF794B930B593B028216846C9
:10175000FEF7FFFC14210AA8FEF7FBFC0024012081
:101760000F94022504900095102011940590109478
:10177000129407946846FFF787FB08B172B6FEE73C
:101780000F20CDE90A040C940D9400210AA80E94B0
:10179000FFF78EFA08B172B6FEE70FA80F95119405
:1017A000FFF710FA002801D072B6FEE713B030BD83
:1017B000704710B5406A0021C185C184FFF708FD5C
:1017C00010BD0168CA6822F49072CA6001684A6953
:1017D00022F001024A61202180F83A10704710B5CA
:1017E00090F83A10222901D0022010BD82684FF4EF
:1017F00080539A4201D1016921B1816A9A421BD07A
:101800004AB10AE00268816A5268C2F308020A809B
:10181000816A891C08E0026972B10268526802F0AC
:101820007F020A70816A491C8162C18D491E0904C8
:10183000090CC18503D016E002685268F1E701681F
:10184000CA6822F02002CA600168CA6822F4807265
:10185000CA6001684A6922F001024A61202180F8C9
:101860003A10FFF703FE002010BD000070B50446DB
:1018700000680169E26821F4405111430161216966
:10188000A0680843616908432168CA6841F20C6393
:101890009A430243CA6020684169A26921F44071F9
:1018A000114341611E492068884202D1FFF7A6FA20
:1018B00001E0FFF793FA00EBC00101EB0012606852
:1018C00064218000B2FBF0F3B3FBF1F36FF0180674
:1018D0007343B2FBF0F5B2FBF0F605EB8305322360
:1018E00003EB0515B5FBF1F5B6FBF1F605F0F005D8
:1018F00005EB0615B2FBF0F6B2FBF0F0B0FBF1F031
:101900006FF01802504306EB800003EB0010B0FBB1
:10191000F1F0216800F00F002844886070BD0000DD
:10192000003801402DE9F041984617460E4604461E
:10193000069D1DE0681C1BD02DB1FFF793F8A0EBAE
:101940000800A84214D92068C16821F4D071C16090
:101950002068416921F001014161202084F83900AB
:1019600084F83A00002084F838000320BDE8F081B4
:101970002068006836EA000004D00020B842D9D0C0
:101980000020F3E70120F9E710B50848FFF722FC33
:1019900007480068800607D50548001D0068BDE8B7
:1019A0001040C0B200F070BD10BD000074000020F7
:1019B000003801400148FFF70DBC0000B4000020D2
:1019C000FEE700000FB4054B10B503A9044A0298C6
:1019D00000F03CF810BC5DF814FB0000D51E0008B8
:1019E000400000200FB4084B10B504A902AA0398C8
:1019F00000F02CF8044602A9002000F003F920466C
:101A000010BC5DF814FB0000051C00080907090E56
:101A1000002804DB00F1E02080F80014704700F09B
:101A20000F0000F1E02080F8141D704702E008C8A4
:101A3000121F08C1002AFAD170477047002001E048
:101A400001C1121F002AFBD1704700002DE9FF4F92
:101A50008BB09A460F460546002606E025280BD097
:101A600052460D9990476D1C761C28780028F5D1B8
:101A70000FB03046BDE8F08F0024A0460122604937
:101A800000E0044315F8013F203B02FA03F008424E
:101A9000F7D128782E2817D115F8010F44F0040447
:101AA0002A280ED06FF02F022878A0F130010929E2
:101AB0000AD808EB880102EB410100EB01086D1C1C
:101AC000F2E757F8048B6D1C287869283ED006DCB5
:101AD0000028CDD063280BD0642804D136E07328C9
:101AE00010D075284BD052460D999047761C85E052
:101AF00017F8040B8DF8000000208DF80100E9466E
:101B0000012003E057F8049B4FF0FF3061074FF0CE
:101B1000000401D40AE0641C44450DDA8442FADB77
:101B200019F804100029F6D106E0641C8442FCDB9D
:101B300019F804100029F8D1264404E019F8010B23
:101B400052460D999047641EF8D257E001CF4FF0EE
:101B50000A0B002802DA40422D2102E0210504D5BB
:101B60002B218DF82410012103E0E10705D020216D
:101B7000F7E70DF1200908910CE00021F9E701CF0A
:101B80004FF00A0BF9E75946FEF7B7FB01F13002B7
:101B900009F8012D0028F6D1ADEB090000F1200B6A
:101BA000600701D44FF00108D84502DDA8EB0B0017
:101BB00000E000208046002406E009A85246005DAF
:101BC0000D999047641C761C08988442F5DB04E06C
:101BD000302052460D999047761CB8F10001A8F1CB
:101BE0000108F5DC05E019F8010B52460D99904704
:101BF000761CBBF10001ABF1010BF4DC6D1C34E78A
:101C0000092801000A68531C0B601070704700001F
:101C100010B5094C0220217800F0B4FA002104200C
:101C200000F0D4FA1020616800F012FBA168BDE852
:101C30001040112000F00CBB1800002001780A02AF
:101C4000417811430A028178C078114340EA0120AB
:101C5000704700002DE9F84F6349814601EB090404
:101C6000E0780E2873D00BDC604B4FF0010509289B
:101C700047D2DFE800F02434383C45484A468D001E
:101C800062287DD00CDC2B287BD035287AD06028C8
:101C900079D0612835D1A079BDE8F84F00F0C9BBF3
:101CA000632871D0642870D065282AD160792179A1
:101CB00040EA0121A01DBDE8F84F00F011BC1978E1
:101CC000002031B1012100F0C3FBC2B2032100208A
:101CD00012E0002100F0BCFBC2B21D70F6E7BDE8C7
:101CE000F84F00F01DBB00220321022004E0A07980
:101CF000D870002203210846BDE8F84F00F0F8BC78
:101D00005D70BDE8F88F9D70FBE760792179002652
:101D100040EA012732E000BF334809EB06010844DE
:101D2000017A407AA51900EB012015F8068F1FFAF9
:101D300080FBA878E97895F801A001EB002080B23B
:101D4000009000F0F8F801460020294A06E023E060
:101D500012F810C0C44503D0401CC0B28842F7D36B
:101D600002EB40004178514504D1291D4046009ABC
:101D700000F040F806EB0B00001D86B2BE4205E005
:101D800023E00FE013E01BE024E028E0C4D3B8E731
:101D9000BDE8F84FFFF73CBFA079E179BDE8F84F07
:101DA00000F022BCA079BDE8F84F00F0C7B8607918
:101DB000217940EA0121A01DBDE8F84FFEF790BB54
:101DC000A079BDE8F84F00F0B8B8A079BDE8F84FA9
:101DD00000F02EBBA079BDE8F84F00F0EDBBA07974
:101DE000BDE8F84F00F07ABBF4000020240000208A
:101DF000642700082DE9F04700240125034609283F
:101E00004DD010DC012B19D0022B20D003281AD181
:101E10000846114600F048FA07460026DFF8B09061
:101E20004FF496782FE0122B4AD014280BD1084695
:101E3000114600F037FA014614203CE0012000F082
:101E4000E5F93AE02846BDE8F0872046FBE708467A
:101E5000114600F027FA014602202CE0012104205F
:101E600000F0B4F9002208214846FEF7F6FD40468E
:101E7000FEF7E2FC012208214846FEF7EEFD40464F
:101E8000FEF7DAFC761CBE42E8D30221042000F003
:101E90009DF939465FF0030000F0DAF90DE00846DD
:101EA000114600F0FFF9060003D000F005FAFEF736
:101EB000D5FC3146092000F065F90128C5D1C1E7FC
:101EC0000846114600F0F0F901461220E4E7000050
:101ED000000C014013B54FF6FF730122694602481A
:101EE000FFF7C6FA00981CBDB400002010B5FFF73C
:101EF0006FFBFEF7FBFA4FF47A742046FEF79CFC6A
:101F00002046FEF799FCFEF7F1FAFEF7F7FA0148D2
:101F1000806810BD34000020034610B50020024642
:101F200006E000BF13F8014B521C2044C0B292B22D
:101F30008A42F7D310BD0D2070477047024610B596
:101F400010484FF48071072A1AD2DFE802F0040823
:101F5000191910191500FEF778FD642003E0FEF74B
:101F600074FD4FF47A70BDE81040FEF765BCBDE823
:101F700010400022FEF771BDBDE81040FEF765BDC0
:101F800010BD0000000801402DE9F041544D022130
:101F90002846FEF755FD4FF49678012813D151A03D
:101FA000FFF710FD4046FEF747FC02212846FEF7EA
:101FB00047FD012807D100F07FF902212846FEF7EE
:101FC0003FFD0128F9D04A4E10213046FEF738FD7A
:101FD00001280BD147A0FFF7F5FC0920FEF72CFCE8
:101FE00010213046FEF72CFD0128F9D04FF4006790
:101FF00039462846FEF724FD404C012819D140A05F
:10200000FFF7E0FC0920FEF717FC39462846FEF7EB
:1020100017FD01280DD12068002801DD401E206039
:10202000207800F0F9F939462846FEF709FD012825
:10203000F9D04FF4805739462846FEF701FD0128B4
:1020400019D131A0FFF7BEFC0920FEF7F5FB394698
:102050002846FEF7F5FC01280DD120680A2801DA90
:10206000401C2060207800F0D7F939462846FEF75A
:10207000E7FC0128F9D020213046FEF7E1FC0128D9
:102080002CD123A0FFF79EFC0920FEF7D5FB2021D1
:102090003046FEF7D5FC01281AD10121042000F0BA
:1020A00095F8002208213046FEF7D7FC4046FEF79F
:1020B000C3FB012208213046FEF7CFFC012103209B
:1020C00000F0C6F820213046FEF7BAFC0128F9D00E
:1020D000BDE8F0410221042000F078B8BDE8F081AD
:1020E000000801405749464920205253540000003F
:1020F000000C014059595F4A5900000000000020BF
:1021000059595F444E00000059595F555000000076
:1021100057535F4B00000000FEF7B2FCFFF714FBC3
:10212000FFF78EFAFFF7D2FAFFF7ECFAFFF762FA41
:1021300011480068C16841F02001C16000F03EFA1A
:10214000012211020D48FEF788FC0D4C00F078FAD0
:10215000FFF71AFFFFF7CAFE2168884206D0FFF793
:10216000C5FE01462060102000F072F800F09EF8D5
:10217000FFF7E4FEEAE700007400002000080140D9
:102180002000002010B5104A0C46014612780020AD
:10219000012A14D000F05CF9012100F059F9002166
:1021A00000F056F9012100F053F954B15FF001013C
:1021B00000F04EF902460321072000F099FA0120B1
:1021C00010BD0021F4E700003000002010B50E4AD9
:1021D0000C46014612780020012A12D000F038F98E
:1021E000042100F035F9002100F032F9012100F05E
:1021F0002FF9214600F02CF902460321072000F0B8
:1022000077FA012010BD00003000002070B51446A0
:102210000E4A0D46014612780020012A13D000F024
:1022200017F9002100F014F9210A00F011F9E1B2C8
:1022300000F00EF92246294600F0FCF80246032180
:10224000072000F055FA012070BD0000300000208A
:1022500010B5134A0C46014612780020012A1DD001
:1022600000F0F6F8022100F0F3F8002100F0F0F899
:10227000042100F0EDF8210E00F0EAF8C4F3074164
:1022800000F0E6F8C4F3072100F0E2F8E1B200F054
:10229000DFF802460321072000F02AFA012010BDD2
:1022A0003000002000787047FFF7C8BC0148007874
:1022B00070470000270000200349002008700246F4
:1022C0000321042000F014BA2500002030B538B1F5
:1022D00031B1884202D98C18844212D2002305E021
:1022E000002030BDCD5CC5545B1C9BB29342F9D33A
:1022F00030BD8B1813F8014C8318521E03F8014CA3
:1023000092B2002AF5D130BD0021002806D000E0AD
:10231000491C10F8012B002AFAD10846704700002A
:102320003EB500240094019429A00294FFF7ECFF2D
:1023300082B227A1204600F07DF8C4B226A0FFF7A4
:10234000E3FF82B224A1204600F074F8C4B227A0B3
:10235000FFF7DAFF82B225A1204600F06BF8C4B285
:1023600024A0FFF7D1FF82B222A1204600F062F83C
:10237000C4B222A0FFF7C8FF82B220A1204600F01D
:1023800059F8C4B21FA0FFF7BFFF82B21DA12046BB
:1023900000F050F8C4B204221BA16846FFF722FBEC
:1023A0006846FFF7B1FF82B26946204600F042F866
:1023B000C4B218A0FFF7A8FF82B216A1204600F011
:1023C00039F8C2B20321012000F092F93EBD0000AD
:1023D0007B2270223A22000067696D6C6A79736F04
:1023E00072707930656E396A00000000222C227606
:1023F000223A2200312E302E30000000222C226D95
:10240000223A0000320000002C226D74223A25642A
:10241000000000007D00000010B50146002000F023
:1024200017F802460321BDE81040622000F060B9B1
:102430007047704770B50446044815462044801D17
:10244000FFF744FF601980B270BD00002A01002030
:10245000024A0244401C917180B270472A01002058
:102460000749D1E901329A4208D00648824201D395
:10247000173888608A6812F8010B8A60704700007C
:10248000240000202A0100200B4910B50B680B49DD
:102490000A689C1A012C0DD09A4202D9D31A172B24
:1024A00008D2074B9A4202D3A3F117020A6002F83E
:1024B000010B0A6010BD00002C0000202800002045
:1024C0002A01002001B54FF6FF7301226946024838
:1024D000FEF7CEFF08BD000074000020704700002A
:1024E0002DE9F04105780026002D52D0012D50D164
:1024F00002294ED3471C28A13846FDF735FE044675
:1025000025A0FFF701FF0444A41C2ED024A0FFF750
:10251000FBFE024622A12046FDF738FE40B122A074
:10252000FFF7F2FE024620A12046FDF72FFEE0B99C
:102530001FA13846FDF718FE04461DA0FFF7E4FE74
:102540000444A41C11D016A0FFF7DEFE024614A11D
:102550002046FDF71BFE70B113A0FFF7D5FE024623
:1025600011A12046FDF712FE28B129463046FFF79B
:102570006FFF012104E029463046FFF769FF002183
:10258000FFF766FFBDE8F04102460321342000F06A
:10259000AFB8BDE8F0810000706C61790000000008
:1025A000747275650000000066616C736500000060
:1025B00062745F706C6179007047000006490548DD
:1025C0000860064908600649002008700549FF2098
:1025D0000870704713010020280000202C00002004
:1025E000300000202700002010B50C4608B108A0DC
:1025F00006E00AA0FFF7E6F934B1012C06D10AA0E3
:10260000BDE81040FFF7DEB90AA0F9E710BD0000F1
:1026100077696669206F6B0A000000007769666958
:10262000206572726F720A00776966692030310A1C
:1026300000000000776966692030300A0000000061
:102640002DE9F0410024284E284D06E0FFF708FF51
:10265000014628883154401C288028881F2803D22E
:1026600000F068F80028F1D12888072839D328E03D
:10267000315D552901D0641C06E032195178AA2930
:10268000F9D1917811B1A41CA4B21AE0117953794F
:102690000902C91D19448FB2262F0CD8B84214DB89
:1026A000781E81B21046FFF737FC2744B91911F89C
:1026B000011C884201D0E41CE6E72046FFF7CAFA75
:1026C000BCB22888001B0728D2DA2888001B020425
:1026D000120C2A8005D03119BDE8F0410248FFF7FD
:1026E000F5BDBDE8F0810000F400002014000020DA
:1026F00070B50F4D55232B70AA236B70A970E8702D
:10270000100A28716A71D21D94B2601E81B22846E7
:10271000FFF702FC291901F8010C002C07D003E097
:102720002878FFF7CFFE6D1C641EA4B2F8D270BDEE
:102730002A0100200448D0E90110814201D0012083
:1027400070470020704700002400002000000000B7
:102750000000000001020304060708090000000051
:1027600001020304010002010302040409010B0237
:102770000C010E050F0210021102120214010000DA
:10278000A027000800000020440000002C1A0008C8
:10279000E427000844000020240500003C1A00083B
:1027A0000500000001000000100000000000000013
:1027B0000024F40000000000000000000000000001
:1027C0000000000000000000000000000000000009
:1027D00000000000000000000000000000000000F9
:0427E00000000000F5
:04000005080000ED02
:00000001FF
